:020000040800F2
:100000000020002071290008FD03000801040008F9
:1000100000000000000000000000000000000000E0
:1000200000000000000000000000000005040008BF
:100030000000000000000000090400080D04000892
:10004000B5290008B5290008B5290008B529000818
:10005000B5290008B5290008B5290008B529000808
:10006000B5290008B5290008B5290008B5290008F8
:10007000B5290008B5290008B5290008B5290008E8
:10008000B5290008B529000800000000B5290008BE
:10009000B5290008B5290008B5290008B5290008C8
:1000A000B5290008B5290008B5290008B5290008B8
:1000B000B529000800000000B52900080000000074
:0400C0005FF808F1EC
:1000C400782A000800000020A8000020A8000020D2
:1000D40078090020F0B54E4645465746E0B45448EA
:1000E40094B0012101F04EF85248012101F056F874
:1000F400514B01AC1D1D84339A46012399460323B9
:10010400002698462B68211C23604B4623714346E6
:1001140063712B1F18680835A671E671002700F07B
:10012400AFFC5545EED1B0235B0123609020022340
:100134002371211C0323C0056371A771E77100F0CB
:100144009FFC9020C0050921012200F037FD90207A
:10015400C0050A21012200F031FD902001220C216A
:10016400C00500F02BFD354802F0FEF803A802F0AC
:1001740095F9E1235B02039380235B0003A92F48D5
:10018400089302F033F92D48012102F0A9F98020E7
:100194000121800000F040FD294800F045FB294B77
:1001A40080240993284B80250A9310230B93A401E0
:1001B400012309A922480C930D970E950F971097C8
:1001C40011971294139700F08FFB01221B48802192
:1001D40002F00AFB1D4B80200121C0001F7000F0BB
:1001E4001BFD1B4800F020FB1A4B09A909931A4B6D
:1001F40017480A9380231B010C93202311930B9718
:100204000D970E950F9710971294139700F06CFBAF
:1002140001220A48402102F0E7FA0D48012100F0CA
:100224008FFB14B01CBC90469946A246F0BDC04654
:1002340001000600015200000000002000380140C7
:1002440044000240283801403809002034010020CD
:1002540058000240243801403801002008B5021C2F
:1002640080219020C005490100F0A0FC08BDC046D3
:1002740038B5031C0D1C1148191C2A1C02F0B8FBCC
:100284000F4C02E02378002B05D08020800100F081
:1002940075FB0028F6D000210A4800F051FB8020AD
:1002A400800100F075FB291C064800F057FB054847
:1002B400012100F045FB0123237038BD38090020DB
:1002C400340100204400024010B50D4800F048FB02
:1002D4000C4C802322881B01181A11B280B2884268
:1002E4000CD00948013292B2405C11B2994202D05A
:1002F400228000B210BD00232380FAE70348F8E708
:1003040058000240A800002038010020FFFF000030
:1003140008B50A4800F024FB80231B01181A084B77
:1003240080B21B8801B21AB2914202DD802212010E
:100334009B18181A80B200B208BDC046580002408B
:10034400A800002008B50A1C0F2806D80349C300DA
:100354005858CB18998800F029FC08BD00000020EB
:100364000818C0B27047C04670B5204C204D214ECD
:10037400FFF7AAFF431C0BD000280BD11B4B012213
:1003840052421A801A4B9880FFF79EFF431CF3D108
:10039400002070BD228813B2991CE9D0591C1ED0CC
:1003A400A9790139C9B2002916D0A971C0B2012BAB
:1003B40003DDA9884118C9B2A980F0540132337809
:1003C40092B22280033312B293420DDB832ACFDD33
:1003D40002235B422380CBE7A8710020E7E70023D8
:1003E4002380034B9871C3E7301CD2E780000020C0
:1003F4002C010020AC0000207047C046FEE7C04638
:100404007047C0467047C0467047C0463B4B012208
:10041400196882B01143196058683949014059601C
:100424001868384901401960186837490140196053
:100434005868364901405960D96A0F208143D9620E
:10044400186B334901401963596BA0209143002272
:1004540059639A60009201921968802252020A43F9
:100464001A608022191C9202C00102E0009B8342A0
:1004740008D00B6813400193009B01330093019B48
:10048400002BF3D01D4B1A6880239B02134006D027
:1004940001230193019B012B05D002B07047019306
:1004A400019B012BF9D11B4B144811221A6043689C
:1004B400802143604368890443604268164B1340BB
:1004C4004360426888235B031343436002688023CC
:1004D4005B04134303600368084A0B42FBD0536870
:1004E40003218B435360516802230B4353600C2157
:1004F40053680B40082BFBD1CFE7C04600100240E5
:100504000CB8FFF8FFFFF6FEFFFFFBFFFFFFC0FF85
:10051400ACFEFFFF00200240FF7FC0FF124B0C2106
:100524005A6810B50A40082A0BD15C68C022A4029C
:100534005968240F5202023411420CD10B48604313
:1005440000E00B48084B5A680A4B1206120F9A5CDB
:10055400D040186110BDDB6A0F21194001310448F5
:1005640002F0B4F96043EDE70010024000093D00D9
:1005740000127A008400002008B5074B984200D08E
:1005840008BD80208000012100F02CFE8020800026
:10059400002100F027FEF3E7002401400B688A687D
:1005A40010B51A43CB68C4681A430B691A434B69E4
:1005B4001A43044B234013430A7952031343C36081
:1005C40010BDC04603D2FFFF0023036003718360A4
:1005D400C3600361436170478268002903D1022329
:1005E400134383607047012313438360FAE7C046D3
:1005F400016170470369002A02D18B43036170478C
:1006040019430161FBE7C046C268002903D1044BCA
:100614001340C360704780231B021343C360F9E790
:10062400FF7FFFFFC268002903D1044B1340C3605E
:1006340070478023DB011343C360F9E7FFBFFFFF6B
:10064400C268002903D1044B1340C3607047802360
:100654001B041343C360F9E7FFFF7FFF0904114341
:1006640001627047C268024B13401943C16070476E
:10067400FFFFFF83C268002903D1044B1340C3600A
:1006840070478023DB031343C360F9E7FFFFBFFF19
:10069400064B1968002803D1054A0A401A607047BE
:1006A400802212040A431A60F9E7C0460827014071
:1006B400FFFF7FFF064B1968002803D1054A0A4053
:1006C4001A6070478022D2030A431A60F9E7C046D1
:1006D40008270140FFFFBFFF064B1968002803D11C
:1006E400054A0A401A607047802252040A431A607D
:1006F400F9E7C04608270140FFFFFFFE836A19435C
:10070400816242617047C046C268002903D1044B2C
:100714001340C360704780239B011343C360F9E710
:10072400FFDFFFFFC268002903D1044B1340C360FD
:10073400704780235B021343C360F9E7FFFFFEFFAA
:10074400C268002903D1044B1340C360704780235F
:100754005B011343C360F9E7FFEFFFFF8268802367
:100764001B06134383608268094BD20FD20705E04E
:100774008268013BD20FD207002B01D0002AF7D1A7
:100784008368002B01DB006C70470020FCE7C04647
:10079400FFEF000082681023134383607047C04654
:1007A40082680423134383607047C046006C80B2A0
:1007B4007047C046002904D1C36801229343C36033
:1007C4007047C26801231343C360F9E7C368022278
:1007D4009343C360C3681943C16070474368002AE8
:1007E40002D18B434360704719434160FBE7C04625
:1007F400CB0107D58068044B18400140481E814155
:10080400C8B270470068F8E7FFFFFFFE0160704759
:100814004268036800200B4203D011404A1E9141F4
:10082400C8B27047016070470268264B13400360EA
:100834000023036043608360C360234B984219D054
:10084400224B98421CD0224B98421FD0214B9842F5
:1008540023D0214B984227D0204B98422BD0204BB9
:10086400984200D070471F4BF022596812050A4382
:100874005A60F7E71B4B0F2259680A435A60F1E7A5
:10088400184BF02259680A435A60EBE7154BF022E3
:10089400596812010A435A60E4E7124BF02259687E
:1008A40012020A435A60DDE70E4BF0225968120324
:1008B4000A435A60D6E70B4BF022596812040A43E4
:1008C4005A60CFE7FEFF0000080002401C0002400F
:1008D4003000024044000240580002406C000240D4
:1008E400800002400000024002680D4B10B51A401F
:1008F4008C680B6A23430C6923434C6923438C693A
:100904002343CC6923434C6A23438C6A2343134314
:100914000360CB680C6843604B688460C36010BD9F
:100924000F80FFFF0023036043608360C3600361A3
:1009340043618361C3610362436283627047C0465B
:100944000268002903D1044B13400360704701235C
:1009540013430360FAE7C046FEFF0000416070479E
:10096400406880B27047C0460368002A02D18B43B6
:100974000360704719430160FBE7C046034B1B68E3
:100984001840431E9841C0B27047C0460000024060
:10099400014B58607047C04600000240034B1B687F
:1009A4001840431E9841C0B27047C0460000024040
:1009B400014B58607047C0460000024008B59023C0
:1009C400DB0598421AD0294B984222D0284B9842F2
:1009D4002AD0284B984232D0274B98423AD0274B02
:1009E400984200D008BD8020C003012100F0EEFB36
:1009F4008020C003002100F0E9FBF3E7802080029F
:100A0400012100F0E3FB80208002002100F0DEFBE6
:100A1400E8E78020C002012100F0D8FB8020C0025A
:100A2400002100F0D3FBDDE780200003012100F06A
:100A3400CDFB80200003002100F0C8FBD2E780201A
:100A44004003012100F0C2FB80204003002100F09C
:100A5400BDFBC7E780208003012100F0B7FB8020A5
:100A64008003002100F0B2FBBCE7C046000400484C
:100A740000080048000C004800100048001400481A
:100A8400F0B55F46564644464D46F0B483B00191F6
:100A94000F680321002200230126884603E0013366
:100AA4000232102B2CD0341C9C403D1C2540A54206
:100AB400F5D1019C012124794942A3468C46DC44AA
:100AC4006446E4B2012C22D945469540ED43AC4638
:100AD400056864462540056005685C4694402C43DF
:100AE4000460C468454695400199AC43C460CC7920
:100AF400C56894402C430133C4600232102BD2D118
:100B040003B03CBC90469946A246AB46F0BD444671
:100B140081689440E443214081600199A446497965
:100B2400846891402143816041688CB20199AC434F
:100B340084808979456899400D43ADB28580C7E7C3
:100B4400044B012203600023037142718371C3715A
:100B54007047C046FFFF0000802382B05B02019310
:100B6400019B0B430193019BC361C161019BC36161
:100B7400C3690193C369019302B0704700690840D7
:100B8400431E9841C0B27047006980B27047C046A6
:100B940040690840431E9841C0B27047406980B222
:100BA4007047C0468161704701857047002A01D1B2
:100BB400018570478161FCE78182704707230B4000
:100BC400C9088900401810B5016A9B000F249C4095
:100BD400A1430162016A9A40131C0B43036210BDD6
:100BE400074B03211A680A401A6000229A60DA60EF
:100BF4001A615A619969802252000A439A617047C6
:100C040000000140034B03211A688A431043186013
:100C14007047C04600000140044B1A68002902D105
:100C240082431A60704710431860FBE700000140DC
:100C3400044B1A68002902D182431A60704710439A
:100C44001860FBE70000014003230B40084A8908B1
:100C54008900891810B58A689B000F249C40A24320
:100C64008A608A689840031C13438B6010BDC04699
:100C740000000140024B9A69104398617047C046D6
:100C840000000140024B9869C005C00F7047C04680
:100C940000000140024B9A69104398617047C046B6
:100CA40000000140114B0122196811431960586872
:100CB4000F490140596018680E49014019601868CD
:100CC4000D490140196058680C4901405960D96ABE
:100CD4000F208143D962186B094901401963596B8C
:100CE4009143002259639A607047C0460010024045
:100CF4000CB8FFF8FFFFF6FEFFFFFBFFFFFFC0FF8E
:100D0400ACFEFFFF024B00221A7018707047C046F9
:100D140002100240002382B001938022A0230B49D9
:100D24009202D8010B6813420BD1019B013301934A
:100D3400019B8342F6D1054B18688003C00F02B0B3
:100D44007047019B01330193019BF4E700100240BB
:100D5400034BF8211A68C0008A4310431860704797
:100D640000100240064B002804D11A6801218A436E
:100D74001A607047196801220A431A60F9E7C046ED
:100D840000100240034BF8215A6BC0008A43104301
:100D94005863704700100240064B002804D15A6B78
:100DA40001218A435A637047596B01220A435A63EB
:100DB400F9E7C04600100240064B002804D1596BE5
:100DC40004220A435A6370475A6B04218A435A63C4
:100DD400F9E7C04600100240064B01211A6A8A4313
:100DE4001A621A6A04218A431A621A6A1043186240
:100DF4007047C04600100240044B18211A6A8A4307
:100E04001A621A6A104318627047C0460010024002
:100E1400064B002804D15A6A01218A435A6270475A
:100E2400596A01220A435A62F9E7C0460010024097
:100E3400054B10B5054A5C6822405A605A68114354
:100E44000843586010BDC04600100240FF7FC2FF37
:100E5400064B1968002803D1054A0A401A607047F6
:100E6400802252040A431A60F9E7C0460010024087
:100E7400FFFFFFFE064B596B002803D1054A0A40C9
:100E84005A637047802252020A435A63F9E7C04604
:100E940000100240FFFFFEFF034B0F21DA6A8A4372
:100EA4001043D8627047C04600100240064B1968D0
:100EB400002803D1054A0A401A60704780221203B1
:100EC4000A431A60F9E7C04600100240FFFFF7FF2B
:100ED400014B18707047C04607100240034B0321B2
:100EE4005A688A43104358607047C0460010024055
:100EF400024B0C205B6818407047C046001002404B
:100F0400034BF0215A688A43104358607047C04627
:100F140000100240034B044A59680A4010435860C9
:100F24007047C04600100240FFF8FFFF094B0A4A11
:100F340059680A405A6059680204120C0A435A60FC
:100F4400196B064A000C0A401A631A6B10431863A3
:100F54007047C04600100240FFBFFFFFFFFEFFFFC7
:100F6400044B40211A6B8A431A631A6B10431863AB
:100F74007047C04600100240044B10211A6B8A438C
:100F84001A631A6B104318637047C046001002407E
:100F9400030F012B09D0084B084A196B0A401A6346
:100FA400054B1A6B104318637047034B03211A6BEC
:100FB4008A431A63F4E7C04600100240FFFFFCFFB7
:100FC400044B80211A6B8A431A631A6B104318630B
:100FD4007047C046001002404D4A0C21536870B55A
:100FE4000B40041C042B09D008D9082B00D16CE059
:100FF4000C2B03D147490160002002E04649002040
:101004002160434B454D5A680E1C1206120FAA5C10
:10101400D6406660321C5E687605760FAD5DEA40A8
:10102400A2601D6BEE0547D43D4BE360384B1B6B50
:101034005E063ED43B4B2361354B1D6B0B1CEE0609
:1010440000D4354B324D63612E6B0323334221D1DF
:10105400A2612F4DC0232E6B9B021E4207D1E26179
:101064002B4B1B6B1A0600D42A48206270BD2E6BD2
:1010740080221E405202964237D0296B80221940AA
:101084009202914240D02A6B1A409A42E8D1224BF4
:10109400E361E5E72E6B1E40012E24D02E6B1E402B
:1010A400022E2DD02D6B2B40032BD2D11A4BA361D2
:1010B400CFE780231B02BEE75B685D0402D45308BC
:1010C400E360B3E79308E360B0E75568C023AD027B
:1010D40051682D0F5B020235194208D1124868434A
:1010E4002060011C8DE7A161B3E7E161B8E7D36A31
:1010F4000F2119400131084801F0E8FB6843EFE78C
:1011040080231B02A361A4E780231B02E361A7E7FA
:1011140000100240006CDC0200127A0098000020EB
:10112400809FD5001280000000093D00024B1A6A1E
:10113400104318627047C04600100240064B196AFB
:10114400002803D1054A0A401A627047802212021D
:101154000A431A62F9E7C04600100240FF7FFFFF0E
:10116400064B196A002803D1054A0A401A627047DF
:10117400802252020A431A62F9E7C0460010024074
:10118400FFFFFEFF044B5A69002902D182435A61D2
:10119400704710435861FBE700100240044B9A6902
:1011A400002902D182439A61704710439861FBE79A
:1011B40000100240044BDA69002902D18243DA614B
:1011C40070471043D861FBE700100240044B9A6A51
:1011D400002902D182439A62704710439862FBE768
:1011E40000100240044BDA68002902D18243DA601D
:1011F40070471043D860FBE700100240044B1A69A3
:10120400002902D182431A61704710431861FBE739
:1012140000100240044B1A78002902D182431A704C
:10122400704710431870FBE709100240430908D1C6
:101234000A4B1A681F231840C240101C012318408F
:101244007047012B04D0022B05D0044B5A6BF1E7F5
:10125400024B1A6AEEE7014B5A6AEBE700100240B0
:10126400034B8022596A52040A435A627047C046AB
:1012740000100240034B9B681840431E9841C0B2C3
:101284007047C04600100240014B18707047C046BA
:101294000A10024010B52D4CCA23636253236362C3
:1012A40082B000230093E36859061BD401235B42F8
:1012B4008021E3604020C90101E0002A08D1E368ED
:1012C400021C1A40009B01330093009B8B42F4D113
:1012D4001E4BDB685A0605D400201C4BFF225A62C1
:1012E40002B010BD194B1A4900221A6059611949FC
:1012F4005960996818499A601961DA61DA62DA63A7
:101304005A64DA601A6401929A6891061CD4CA225B
:101314005A6253225A62DA68A0218A438020DA6032
:101324002024000201E0002908D1DA68211C1140C0
:10133400019A01320192019A8242F4D1034BFF21B6
:10134400DA6859629306C7D50120C6E70028004031
:10135400FFFF000001210000FF007F0030B51E4D9B
:10136400CA236B6253236B6283B000230193EB683F
:10137400590617D401235B428021EB604024C90144
:1013840001E0002A08D1EB68221C1A40019B0133BA
:101394000193019B8B42F4D10F4BDB68590601D4B6
:1013A400002014E00C4B40219A688A439A609A68A2
:1013B40001680A439A6082681A61426819691204D2
:1013C4000A431A61DA6880218A43DA600120024BF9
:1013D400FF225A6203B030BD0028004000217F2262
:1013E400FF230EC07047C046002805D1044BCA2213
:1013F4005A6253225A627047014BFF225A62FAE73B
:101404000028004010B5002382B00F4C0193E3681C
:1014140001205A0615D401235B428021E360402059
:10142400C90101E0002A08D1E368021C1A40019BAB
:1014340001330193019B8B42F4D1034BD8684006DE
:10144400C00F02B010BDC04600280040024B8021EE
:10145400DA688A43DA6070470028004010B5002338
:1014640082B0124C0193A36801209A061CD4CA23AB
:10147400636253236362E368A02293438021E360A1
:101484002020090201E0002A08D1E368021C1A4066
:10149400019B01330193019B8B42F4D1034BFF2247
:1014A400D8685A628006C00F02B010BD0028004000
:1014B40030B51E4DCA236B6253236B6283B0002385
:1014C4000193EB6859061CD401235B428021EB6035
:1014D4004024C90101E0002A08D1EB68221C1A400B
:1014E400019B01330193019B8B42F4D10F4BDA68CA
:1014F4000023510605D40D4AFF21181C516203B084
:1015040030BD00280BD1094B10219A688A439A6098
:10151400064B8021DA688A43DA600123EBE7034B48
:10152400102299680A439A60F2E7C04600280040F6
:10153400094BCA225A6253225A62002807D19A6878
:10154400DF210A409A60044BFF225A62704799686F
:1015540020220A439A60F6E700280040F0B54F4B7A
:1015640083B09B68002830D140251D4062D1CD70E6
:101574000B780024092B07D90A3B0134DBB2E4B20F
:10158400092BF9D82401E4B2487823431B0400242E
:10159400092807D90A380134C0B2E4B20928F9D8B5
:1015A4002401E4B28A78204300020021092A07D9E1
:1015B4000A3A0131D2B2C9B2092AF9D80901C9B229
:1015C4002B4303430A4313430BE0402213402ED121
:1015D400CB7008784A7800041202897802430A43DF
:1015E40013432E4F5324CA227A627C62002400944F
:1015F400FC68610621D4012252428025FA6040260B
:10160400ED0101E0002C08D1F968341C0C4000996C
:10161400013100910099A942F4D1204AD2685106BF
:101624000BD400201D4BFF225A6203B0F0BDCB78CF
:101634001B04CEE7CD782D049AE7194A80211A407D
:10164400164B1A60DA688A43DA60996820221140DE
:1016540001D00120E6E7019199680A42F9D1CA2232
:101664005A6253225A62DA68A0218A438020DA60DF
:101674002024000201E0002908D1DA68211C11406D
:10168400019A01320192019A8242F4D1034BFF2163
:10169400DA6859629306C4D50120C3E700280040E4
:1016A4007F7F7F000023C370037043708370704793
:1016B400144BF0B51B6880277F25FF039C025A0456
:1016C4001D403B40A40E520E1B0C0C704A708D70D2
:1016D400CB70002815D1230998001B1858000F233C
:1016E4001C40041910090C708400001940001A40B1
:1016F4002E0982184A70B200B61876001D4075197A
:101704008D70F0BD00280040014B986A5B687047FB
:1017140000280040F0B583B0002837D14B78102260
:101724001A4203D093430A33DBB24B70CA780020C9
:10173400092A07D90A3A0130D2B2C0B2092AF9D823
:101744000001C0B202431204092B00D87FE0002438
:101754000A3B0134DBB2E4B2092BF9D82401E5B227
:1017640088782B431D020024092807D90A3801343C
:10177400C0B2E4B20928F9D82401E4B20978131CF0
:1017840049030B432B432043184309E0C8784B78A3
:1017940000041B0218438B7818430B785B0318432F
:1017A4002C4F5321CA237B62796200210091F9688E
:1017B4004A0617D401235B428025FB604026ED01D5
:1017C40001E0002C08D1F968341C0C400099013167
:1017D40000910099A942F4D11E4BDB685A0601D44A
:1017E40000200CE01C4B1B4A18405060D368802139
:1017F4008B43D36091682023194005D00120154BF9
:10180400FF225A6203B0F0BD019191680B42F5D1F9
:10181400CA23536253235362D368A0218B4380208D
:10182400D3602024000201E0002908D1D368211CE0
:101834001940019B01330193019B8342F4D1054B71
:10184400FF21DA6859629306D8D40020D7E700252F
:1018540086E7C046002800403FFFFF0001230370D5
:10186400837043700023C3707047C046134B70B538
:101874005B683F251C02DA041D401B04240ED20EB3
:101884005B0FCC704A708D700B70002815D1230942
:1018940098001B1858000F231C4004191009CC7021
:1018A4008400001940001A402E0982184A70B200C0
:1018B400B61876001D4075198D7070BD0028004063
:1018C400384BF0B59B68002846D140241C4062D1B7
:1018D400D4701378092B63D900210A3B0131DBB2A0
:1018E400C9B2092BF9D80901CDB251782B431D0493
:1018F4000020092907D90A390130C9B2C0B209291F
:10190400F9D80001C0B2937801430902092B45D9E3
:1019140000200A3B0130DBB2C0B2092BF9D8060122
:10192400F6B21E43137B0020092B07D90A3B013072
:10193400DBB2C0B2092BF9D80001C0B25768034327
:10194400BC469768624617433C4325430D433543E1
:101954001A062B1C134312E04021194018D1D170F0
:101964009368506818439378034310780004034342
:101974005078127B00020343120613430B43094AB7
:10198400CA21516253215162D361FF235362F0BDD6
:10199400D1780904E4E7D47824049AE70026C0E760
:1019A4000025A2E700280040002301220360836091
:1019B400027343607047C046F0B5204B4746DB696D
:1019C40080B4D9B27F270F40884680268021C9037E
:1019D400F6051E401940090C9660194E9D025C04E0
:1019E400D1709900AD0E640E890E33401570547099
:1019F40097701173536000281DD12B0998001B1890
:101A040058000F231D404519200915708500401901
:101A140040003F091C400419B8003F1808095470DD
:101A24008400464600197F001E4040001940BE193C
:101A340041189670117304BC9046F0BD0028004014
:101A44008080808010B50023144C82B00193CA2397
:101A5400636253236362A36800291BD183438021FB
:101A6400A360000AC90101E0002A08D1E3681A1C36
:101A7400019B024001330193019B8B42F4D1074B3C
:101A8400DB681840431E9841C0B2044BFF225A62DF
:101A940002B010BD1843A0600120F6E70028004002
:101AA400054BCA201206586211435320FF22586284
:101AB40059645A627047C04600280040024B586C73
:101AC4004004400C7047C04600280040074BCA221F
:101AD4005A6253225A629A6807218A439A609A6822
:101AE4001043FF2298605A627047C04600280040A5
:101AF400044BCA225A6253225A62FF2258615A6224
:101B04007047C04600280040024B58690004000C8E
:101B14007047C0460028004010B50023154C82B021
:101B24000193CA23636253236362A26800281AD113
:101B3400114B80211340A3600420C90101E0002A55
:101B440008D1E368021C1A40019B01330193019BF5
:101B54008B42F4D1074BD8684007C00F054BFF22D6
:101B64005A6202B010BD8023DB001343A36001203E
:101B7400F4E7C04600280040FFFBFFFF084BCA22E1
:101B840010B55A6253225A629C68064A22409A60EF
:101B94009A6811430843FF2298605A6210BDC046F8
:101BA40000280040FFFFFBFF024B80209B68C0021F
:101BB4001840704700280040084BCA2210B55A62EA
:101BC40053225A629C68064A22409A609A681143DA
:101BD4000843FF2298605A6210BDC04600280040A6
:101BE400FFFF8FFF094BCA225A6253225A62996837
:101BF400002806D1064A0A409A60044BFF225A6222
:101C04007047802212040A439A60F6E700280040D5
:101C1400FFFF7FFF074BCA225A6253225A62996818
:101C2400054A0A409A609A681043FF2298605A62F3
:101C34007047C04600280040FFFFF7FF70B5124E02
:101C4400CA237362532373628025F3686D022B42A7
:101C54000BD0F3682B4208D080235B0102E0013BE8
:101C6400002B02D0F4682C42F9D1074C0023E5681C
:101C7400EE0303D411430843E0630123024AFF2126
:101C8400181C516270BDC046002800400A4B9A6877
:101C94000A4B1340002909D11843074BCA225A6240
:101CA40053225A62FF2298605A62704780221201BE
:101CB40013431843F1E7C04600280040F7F7FFFF3D
:101CC40030B5284C236B646B9D02AD0E0D705D0422
:101CD4006D0E4D707F251D408D708025ED032B40CA
:101CE4001B0CCB700023D370E304DB0E53703F2333
:101CF40023402404640F93701470002830D10878B2
:101D040003099C001B195C000F231840201808705D
:101D140048780409A5006419640018402018487024
:101D240088780409A5006419640018402018887094
:101D34005178080984000019400019404118517075
:101D440091780809840000194000194041189170E5
:101D5400117808098400001940000B40C31813705F
:101D640030BDC04600280040014B986B7047C04608
:101D740000280040054B40001A6C002902D0104393
:101D84001864704782431A64FBE7C0460028004089
:101D9400044B1A6C002902D182431A647047104321
:101DA4001864FBE700280040044B054A196C0A40FC
:101DB4001A641A6C104318647047C0460028004027
:101DC400FFE7FFFF044B054A196C0A401A641A6CBA
:101DD400104318647047C04600280040FFF8FFFF16
:101DE400044B054A196C0A401A641A6C10431864AF
:101DF4007047C04600280040FF9FFFFF064B0028A5
:101E040004D11A6C80218A431A647047196C8022A9
:101E14000A431A64F9E7C04600280040064B196CCF
:101E2400002804D1802212020A431A647047034A2C
:101E34000A401A64FAE7C04600280040FF7FFFFF0B
:101E440082B000230193054B80000193019BC018CD
:101E54000190019B196002B07047C04650280040B1
:101E640082B000230193054B80000193019BC018AD
:101E74000190019B186802B07047C046502800408A
:101E8400044B054A196C0A401A641A6C104318640E
:101E94007047C04600280040FFFFFBFF30B5254DCA
:101EA400CA236B6253236B62EA68082383B013422C
:101EB4000CD0EA68134209D080235B01082402E0B5
:101EC400013B002B02D0EA681442F9D1194BDA68BD
:101ED400140703D49A681024224005D00020154B1F
:101EE400FF225A6203B030BD0843D86201929A6857
:101EF40091061CD4CA225A6253225A62DA68A0217B
:101F04008A438020DA602024000201E0002908D1FD
:101F1400DA68211C1140019A01320192019A82422D
:101F2400F4D1044BFF21DA6859629306D6D5012017
:101F3400D5E7C04600280040104BCA2210B55A62AB
:101F440053225A6200290ED199680422041C944336
:101F5400A1439960196C10400A1C82431A64074B10
:101F6400FF225A6210BD99680422041C9443214341
:101F74009960196C104008431864F0E70028004089
:101F8400044BDA68044B13401840431E9841C0B216
:101F94007047C0460028004078790100054B064A86
:101FA400D968104080221043C0430A400243DA60DB
:101FB4007047C046002800407FFF01000C4A031C04
:101FC400106C30B59168D468042202401D1C980C32
:101FD400C540E80B024019400A430020002A06D0FD
:101FE40024041809240C2040431E9841C0B230BD7B
:101FF40000280040054B10B50103DC688022090C61
:102004001143C94322400A43DA6010BD002800404E
:1020140008B50E4B98420ED00D4B984200D008BD27
:102024008020C0010121FFF7E9F88020C0010021D0
:10203400FFF7E4F8F3E7802040010121FFF7D2F82D
:10204400802040010021FFF7CDF8E8E7003001408F
:10205400003800400023E02203804380D200C38084
:10206400038143818381C381072382800382704774
:102074000388C122920110B51A40CC890B882343EE
:10208400CC8823430C8923434C8923438C892343E1
:10209400134303808288094B13408A881343838047
:1020A4000B8A04220382038893434A8813430380E0
:1020B400828B034B1340838310BDC046FFF0FFFFA8
:1020C400FFF7FFFF002302220360436082608381E5
:1020D4007047C046F0B5474680B4284B828B8AB01F
:1020E4001340838302230384878B8A68051C0C1C9A
:1020F400BFB2022A3AD08B8840229046002B32D0BD
:1021040001A8FEF769FFE688802301989B009E42A0
:102114002ED0414600F0DAFB83001818A168400075
:1021240000F0D4FB05300A2180B200F0CFFB01227D
:102134000240801A400880B2811E89B20223FD2920
:1021440018D91E4323882E841F4380231B011F4359
:1021540063881F43A3881F43A3891F43AF830AB027
:1021640004BC9046F0BD20239846C9E7CE88E8E732
:10217400000AD1E713020343E3E7C04640F0FFFF40
:10218400002904D1038840229343038070470288C6
:10219400402313430380F9E7002904D183881022E4
:1021A4009343838070478288102313438380F9E725
:1021B400828B002903D1044B13408383704780230F
:1021C400DB0013438383F9E7FFFBFFFF8288024BA5
:1021D4001340194381807047FFF0FFFF8288034B4F
:1021E400134083808388194381807047FFEFFFFF8A
:1021F4008023DB01994204D00288044B13400380FE
:102204007047038819430180FAE7C046FFBFFFFF08
:10221400064B0288994204D080235B001343038059
:102224007047034B13400380FAE7C046FFFE0000EB
:10223400FFFEFFFF002904D1838804229343838097
:1022440070478288042313438380F9E7002904D16B
:10225400838808229343838070478288082313432A
:102264008380F9E70173704781817047007BC0B2B6
:102274007047C046808980B27047C0460288034BCD
:10228400134003800388194301807047FFF7FFFF61
:102294000288002903D1044B134003807047802334
:1022A4009B0113430380F9E7FFDFFFFF02888023CC
:1022B4005B01134303807047012902D0008B80B275
:1022C4007047808A80B2FBE7008A80B27047C046BC
:1022D4008388002A02D18B4383807047194381800D
:1022E400FBE7C0468288034B1340838083881943ED
:1022F40081807047FF9FFFFF090901238B4099B23A
:102304008388002A02D18B438380704719438180DC
:10231400FBE7C0460389C020400118407047C0460F
:102324000389C020C00018407047C0460089084097
:10233400431E9841C0B27047C94389B201817047B6
:1023440030B583880F249DB201230C400289181CE8
:10235400A040041C0020144205D009098B401D40F4
:102364006B1E9D41E8B230BD08B51C4B984214D099
:102374001B4B98421CD01B4B984224D01A4B9842BA
:1023840000D008BD802000030121FEF737FF802024
:1023940000030021FEF732FFF3E78020C001012192
:1023A400FEF720FF8020C0010021FEF71BFFE8E7B5
:1023B400802080020121FEF721FF8020800200217D
:1023C400FEF71CFFDDE78020C0020121FEF716FFA7
:1023D4008020C0020021FEF711FFD2E7003801403F
:1023E4000044004000480040004C004003680122C3
:1023F4009343F0B503604268224B0D1C8968134077
:102404000B4343600268204B69681A40EB688BB049
:102414000B432969041C0B431343036082681B4B61
:1024240013406A691343836001A8FEF7D5FD184B76
:102434009C4222D0174B9C4221D0039F236819044D
:1024440000D57F002E68381C311C00F03FFA311C87
:10245400051C381C00F07EFA76080023B1425B416B
:10246400ED1823681A0404D50B4A2B075B0F15409B
:102474001D43ADB2A5810BB0F0BD079FDEE7089FF9
:10248400DCE7C046FFCFFFFFF3E9FFFFFFFCFFFFE0
:102494000038014000440040F0FF000096239B01F7
:1024A40003600C22002343608360C36002614361C4
:1024B4007047C0464268064B10B51A400C684B681A
:1024C40023438C68C96823430B431343436010BD03
:1024D400FFF0FFFF0023036043608360C360704725
:1024E400002904D103680122934303607047026802
:1024F400012313430360F9E70368002A02D18B43E5
:102504000360704719430160FBE7C0460268002975
:1025140003D1044B13400360704780231B02134311
:102524000360F9E7FF7FFFFF8268002903D1044BB2
:1025340013408360704780231B0113438360F9E7D2
:10254400FFF7FFFF4268002903D1044B13404360A7
:10255400704780231B0313434360F9E7FFFFF7FF32
:102564004268002903D1044B134043607047802321
:10257400DB0213434360F9E7FFFFFBFF4368002AD4
:1025840002D18B434360704719434160FBE7C04667
:102594004268002903D1044B1340436070478023F1
:1025A4001B0213434360F9E7FF7FFFFF42680029E2
:1025B40003D1044B13404360704780231B0413432F
:1025C4004360F9E7FFFF7FFF43691B0E1B0643616E
:1025D40043691943416170470269FF231B02134099
:1025E400038203699BB2194301827047002904D115
:1025F4000368022293430360704702680223134373
:102604000360F9E78268034B1340836083681943CE
:1026140081607047FFFFCFFF4268002903D1044B5C
:1026240013404360704780235B0313434360F9E71F
:10263400FFFFEFFF4268034B1340436043681943B5
:1026440041607047FFFF9FFFC905C90D01857047B1
:10265400406AC005C00D7047436809061B021B0A87
:1026640043604368194341607047C04602680029CB
:1026740003D1044B13400360704780239B01134331
:102684000360F9E7FFDFFFFF0268034B13400360B9
:102694000368194301607047FFF7FFFF4368102286
:1026A4009343436043681943416070474368202261
:1026B400934343604368194341607047426800296B
:1026C40003D1044B1340436070478023DB01134361
:1026D4004360F9E7FFBFFFFF002904D183680822A4
:1026E4009343836070478268082313438360F9E748
:1026F4000269FF2313400382036909029BB2194351
:1027040001827047002904D18368202293438360A7
:1027140070478268202313438360F9E7002904D1BA
:1027240083681022934383607047826810231343A5
:102734008360F9E78268044B49041340836083682B
:10274400194381607047C046FFFFF1FF43690906E2
:102754001B021B0A43614369194341617047C04628
:1027640083680422934383608368194381607047BC
:10277400002904D1836802229343836070478268EE
:10278400022313438360F9E78268002903D1044BD1
:102794001340836070478023DB0113438360F9E7B0
:1027A400FFBFFFFF8268034B1340836083681943B4
:1027B40081607047FF7FFFFF0268044B49051340A7
:1027C40003600368194301607047C046FFFF1FFCA4
:1027D4000268044B09041340036003681943016051
:1027E4007047C046FFFFE0FF8368002A02D18B4395
:1027F4008360704719438160FBE7C0468268034BDE
:10280400134083608368194381607047FFDFFFFFD3
:1028140010B5FF248BB2214001248C401B0A211CDB
:10282400022B0AD0032B0AD00368002A02D18B435F
:10283400036010BD19430160FBE70430F4E708307E
:10284400F2E7C0468369002A03D19BB28B4303831A
:102854007047194389B20183FAE7C0468268034B83
:10286400134083608368194381607047FFEFFFFF63
:10287400C0690840431E9841C0B270470162704766
:10288400FF220A4010B501248BB294401B0A221C7B
:10289400012B0FD0022B10D084682240C369002082
:1028A400002A06D0090C012088400340581E8341A9
:1028B400D8B210BD04682240F0E744682240EDE736
:1028C400090C01238B4003627047C046002934D0B1
:1028D4000123002210B488422CD301242407A142EE
:1028E40004D2814202D209011B01F8E7E400A142AB
:1028F40004D2814202D249005B00F8E7884201D346
:10290400401A1A434C08A04202D3001B5C0822431D
:102914008C08A04202D3001B9C082243CC08A0428E
:1029240002D3001BDC082243002803D01B0901D07A
:102934000909E3E7101C10BC7047002801D00020EF
:10294400C04307B4024802A14018029003BDC04628
:10295400190000000029F0D003B5FFF7B9FF0EBC41
:102964004243891A1847C0467047C046002103E015
:102974000A4B5B584350043109480A4B42189A42A7
:10298400F6D3094A02E0002313600432074B9A424B
:10299400F9D3FDF73BFD00F00DF87047782A0008E5
:1029A40000000020A8000020A800002078090020D2
:1029B400FEE70000F8B5FDF78DFB30270126FDF793
:1029C400D3FC051EFBD08378C2787B401A42F6D133
:1029D4000378002BF3D000242B191979013408094A
:1029E4003140FDF7AFFC2B78A342F5DCE7E7C046A6
:1029F400F0B50F2A35D9031C0B439C0735D1161C9F
:102A0400103E36093501451910350C1C031C276886
:102A14001F6067685F60A7689F60E7681034DF60C5
:102A24001033AB42F3D1731C1B01C518C9180F2313
:102A34001340032B1BD91C1FA4080134A40000233A
:102A4400CE58EE500433A342FAD1ED18C91803232B
:102A54001A4005D00023CC5CEC5401339342FAD1E4
:102A6400F0BD051C002AF5D1FAE7051CF2E71A1C93
:042A7400F8E7C04679
:102A780000000048010000000000004802000000BB
:102A880000000048040000000000004808000000A2
:102A9800000000481000000000000048200000006E
:102AA80000000048400000000000004880000000CE
:102AB8000004004801000000000400480200000073
:102AC800000400480400000000040048080000005A
:102AD8000004004810000000000400482000000026
:102AE8000004004840000000000400488000000086
:102AF800FEFF0000000000000000000001020304C7
:102B080006070809006CDC0200000000010203044B
:082B180001020304060708098D
:040000050800297155
:00000001FF
